:100000000C9463000C948B000C948B000C94910363
:100010000C9491030C9491030C948B000C948B0022
:100020000C948B000C948B000C948B000C948B0024
:100030000C948B000C948B000C948B000C948B0014
:100040000C9447030C948B000C9415030C94EF0252
:100050000C948B000C948B000C948B000C948B00F4
:100060000C948B000C948B000000000024002700EF
:100070002A0000000008000201000003040700003D
:1000800000000000000000000000250028002B00F8
:1000900000000000230026002900040404040404D6
:1000A0000404020202020202030303030303010227
:1000B00004081020408001020408102001020408F6
:1000C00010200B04260611241FBECFEFD8E0DEBFA0
:1000D000CDBF11E0A0E0B1E0E0EEFCE002C0059091
:1000E0000D92AC32B107D9F722E0ACE2B1E001C029
:1000F0001D92A533B207E1F710E0C2E6D0E004C0DC
:100100002197FE010E945806C136D107C9F70E9407
:10011000B6040C9463060C940000CF92DF92EF9229
:10012000FF920F931F93CF93DF936C017A018B01A2
:10013000C0E0D0E0CE15DF0589F0D8016D918D01CA
:10014000D601ED91FC910190F081E02DC601099559
:10015000892B11F47E0102C02196ECCFC701DF91FB
:10016000CF911F910F91FF90EF90DF90CF90089566
:10017000FC01918D828D981761F0828DDF01A80FAF
:10018000B11D5D968C91928D9F5F9F73928F90E0D1
:1001900008958FEF9FEF0895FC01918D828D981740
:1001A00031F0828DE80FF11D858D90E008958FEF7D
:1001B0009FEF0895FC01918D228D892F90E0805C46
:1001C0009F4F821B91098F739927089589E791E0CA
:1001D0000E94DA0021E0892B09F420E0822F0895A3
:1001E000FC01848DDF01A80FB11DA35ABF4F2C91D4
:1001F000848D90E001968F739927848FA689B789A3
:100200002C93A089B1898C9180648C93938D848D7B
:10021000981306C00288F389E02D80818F7D80834A
:100220000895EF92FF920F931F93CF93DF93EC010A
:1002300081E0888F9B8D8C8D981305C0E889F989A2
:10024000808185FD24C0F62E0B8D10E00F5F1F4FBF
:100250000F731127E02E8C8DE8120CC00FB607FC2F
:10026000FACFE889F989808185FFF5CFCE010E9418
:10027000F000F1CF8B8DFE01E80FF11DE35AFF4F27
:10028000F0820B8FEA89FB898081806207C0EE894A
:10029000FF896083E889F98980818064808381E0B7
:1002A00090E0DF91CF911F910F91FF90EF90089513
:1002B000CF93DF93EC01888D8823C9F0EA89FB890D
:1002C000808185FD05C0A889B9898C9186FD0FC004
:1002D0000FB607FCF5CF808185FFF2CFA889B989D9
:1002E0008C9185FFEDCFCE010E94F000E7CFDF912A
:1002F000CF91089580E090E0892B29F00E94E600DC
:1003000081110C940000089590E0FC01EE58FF4F1D
:100310003491FC01E255FF4F2491FC01E656FF4F5A
:10032000E491EE2309F43BC0332339F1333091F0EB
:1003300038F43130A9F0323001F584B58F7D12C028
:10034000373091F03830A1F03430B9F4809180002A
:100350008F7D03C0809180008F77809380000DC0D7
:1003600084B58F7784BD09C08091B0008F7703C0BA
:100370008091B0008F7D8093B000F0E0EE0FFF1F02
:10038000EA57FF4FA591B4918FB7F894EC916111A2
:1003900003C020952E2301C02E2B2C938FBF0895D0
:1003A000CF93DF9390E0FC01E255FF4F2491FC01D5
:1003B000E656FF4F8491882361F190E0880F991FE2
:1003C000FC01E859FF4FC591D491FC01EA57FF4F5A
:1003D000A591B491611109C09FB7F89488812095C7
:1003E00082238883EC912E230BC0623061F49FB787
:1003F000F8943881822F809583238883EC912E2B6B
:100400002C939FBF06C08FB7F894E8812E2B2883CA
:100410008FBFDF91CF9108953FB7F894809171011C
:1004200090917201A0917301B091740126B5A89BBF
:1004300005C02F3F19F00196A11DB11D3FBFBA2F76
:10044000A92F982F8827820F911DA11DB11DBC01D6
:10045000CD0142E0660F771F881F991F4A95D1F79B
:10046000089520917701309178012817390771F4A8
:100470009091750180917601981741F0E091750196
:10048000F0E0E45DFE4F808190E008958FEF9FEFF4
:10049000089508951F93CF93DF93DC015C962D910F
:1004A0003C915D972115310539F481E090E0139678
:1004B0009C938E9312973DC05196ED91FC9152976B
:1004C00050969C915097892F80951FB75E964C91BE
:1004D0005E9741FB772770F941FD6095F894408164
:1004E000772311F0492B01C048234083E90121976C
:1004F000F1F748E0508160FF02C0592B01C058233A
:100500005083E9012197F1F76695415099F77723D8
:1005100021F090818923808303C08081982B908370
:100520001FBF5C968D919C915D970197F1F721E03B
:1005300030E0C901DF91CF911F910895209177019B
:10054000309178012817390771F480917601209154
:10055000750190E0805C9F4F821B910960E470E020
:100560000E943006089580E090E008952091770180
:100570003091780128173907B9F49091750180916D
:100580007601981789F0E0917501F0E0E45DFE4F87
:1005900080812091750130E02F5F3F4F2F7333270B
:1005A0002093750190E008958FEF9FEF0895E091FB
:1005B0007701F0917801E817F90769F4A389B48904
:1005C0009C918589809589238C9310927801109253
:1005D000770181E0089580E008950E945E061F92F1
:1005E0000F920FB60F9211242F933F934F935F9367
:1005F0006F937F938F939F93AF93BF93EF93FF93EB
:1006000089E791E00E94F000FF91EF91BF91AF91D7
:100610009F918F917F916F915F914F913F912F911A
:100620000F900FBE0F901F9018951F920F920FB64C
:100630000F9211242F938F939F93EF93FF93E09149
:100640008901F0918A018081E0918F01F091900100
:1006500082FD12C09081809192018F5F8F732091F3
:100660009301821751F0E0919201F0E0E758FE4FBC
:10067000958F8093920101C08081FF91EF919F91AE
:100680008F912F910F900FBE0F901F9018951F9272
:100690000F920FB60F9211242F933F938F939F9336
:1006A000AF93BF9380916D0190916E01A0916F0106
:1006B000B091700130916C0123E0230F2D3720F4AD
:1006C0000196A11DB11D05C026E8230F0296A11DAC
:1006D000B11D20936C0180936D0190936E01A093E6
:1006E0006F01B09370018091710190917201A0919E
:1006F0007301B09174010196A11DB11D8093710128
:1007000090937201A0937301B0937401BF91AF9164
:100710009F918F913F912F910F900FBE0F901F903F
:1007200018951F920F920FB60F9211242F933F939B
:100730004F935F936F937F938F939F93AF93BF93E9
:10074000EF93FF93E0917701F0917801309709F4EE
:1007500051C0968DA685B785858591FF04C09C9173
:10076000892329F447C09C91892309F043C0A389B8
:10077000B4899C918589809589238C9386899789F2
:100780000197F1F7608D718DA685B785558538E0A5
:1007900020E0CB010197F1F7822F90E095958795A6
:1007A000282F4C91452309F02068315091F7868D10
:1007B00081FD20958091760190E001968F739927B5
:1007C00030917501381749F0A0917601B0E0A45D31
:1007D000BE4F2C938093760103C0868D8160868FF7
:1007E000828D938D0197F1F7A389B4899C918589B6
:1007F000892B8C93FF91EF91BF91AF919F918F9136
:100800007F916F915F914F913F912F910F900FBE0C
:100810000F901F90189510927C0110927B0188EE2A
:1008200093E0A0E0B0E080937D0190937E01A093DF
:100830007F01B093800124E031E030937A0120936E
:10084000790125EC30E0309386012093850124EC7A
:1008500030E0309388012093870120EC30E0309322
:100860008A012093890121EC30E030938C012093A0
:100870008B0122EC30E030938E0120938D0126EC29
:1008800030E03093900120938F01109292011092EA
:1008900093011092940110929501109219021092F6
:1008A000180280931A0290931B02A0931C02B0932B
:1008B0001D0284E191E0909317028093160210923A
:1008C0002D0210922C0210922F0210922E021092E2
:1008D0003102109230021092330210923202609173
:1008E00034026E7F6D7F609334026695617081E0A3
:1008F00068278DE00E94840161E08DE00E94D001B4
:10090000EBEBF0E0E491E0932602E7EAF0E0E4911B
:10091000F0E0EE0FFF1FEA57FF4F859194919093FF
:1009200028028093270260E08CE00E94D001809131
:10093000340281FD04C061E08CE00E9484018CE0FF
:1009400080932202EAEBF0E0E491E0932302E6EAEE
:10095000F0E0E491F0E0EE0FFF1FE057FF4F8591CC
:10096000949190932502809324020895789484B5FD
:10097000826084BD84B5816084BD85B5826085BD9B
:1009800085B5816085BD80916E00816080936E0029
:10099000109281008091810082608093810080911B
:1009A00081008160809381008091800081608093CC
:1009B00080008091B10084608093B1008091B0008C
:1009C00081608093B00080917A00846080937A0087
:1009D00080917A00826080937A0080917A008160B1
:1009E00080937A0080917A00806880937A001092D8
:1009F000C10061E084E00E94D00161E084E00E94D7
:100A00008401E0918901F0918A0182E08083E09184
:100A10008501F091860181E08083E0918701F0916A
:100A2000880180EA808310929101E0918D01F0911C
:100A30008E0186E08083E0918B01F0918C018081B2
:100A400080618083E0918B01F0918C0180818860CE
:100A50008083E0918B01F0918C018081806880839C
:100A6000E0918B01F0918C0180818F7D80830E94C9
:100A70000C024B015C0184E6C82ED12CE12CF12C38
:100A80000E940C02DC01CB0188199909AA09BB0953
:100A9000883E9340A105B10558F021E0C21AD10863
:100AA000E108F10888EE880E83E0981EA11CB11CB5
:100AB000C114D104E104F10419F71092310210922B
:100AC000300210922F0210922E0210922D021092DC
:100AD0002C028EE393E09093330280933202909144
:100AE0002202963108F057C02DE831E030932D02F4
:100AF00020932C022CE333E030932F0220932E021C
:100B000024E632E0309331022093300220916800D5
:100B1000983050F031E09E3008F430E081E001C0C0
:100B2000880F3A95EAF701C084E0822B8093680031
:100B3000983038F09E3040F0963148F020E030E0B8
:100B400008C02DE630E005C02BE630E002C02CE600
:100B500030E030932A0220932902983030F481E06B
:100B600001C0880F9A95EAF70EC0292F30E09E3019
:100B700018F42850310902C02E50310981E001C01B
:100B8000880F2A95EAF780932B0280913202909188
:100B900033020197F1F78091300290913102892B55
:100BA00021F1809177019091780122E086319207BE
:100BB000E1F0009711F00E94D702809134028E7FFD
:100BC00080933402109276011092750186E192E0D2
:100BD0009093780180937701E0912902F0912A02A5
:100BE000908180912B02892B808348E050E060E265
:100BF00071E089E791E00E948D0042E050E069E2F7
:100C000071E089E791E00E948D0086E192E00E9408
:100C10009E02892B49F086E192E00E94B602682F7D
:100C200089E791E00E94110189E791E00E94DA00D2
:100C3000892B49F089E791E00E94B800682F86E18E
:100C400092E00E944A020E947A01DFCF84E191E0A3
:100C5000909317028093160286E192E00C94D702DB
:100C600097FB072E16F4009407D077FD09D00E9459
:100C7000440607FC05D03EF4909581959F4F08955A
:100C8000709561957F4F0895AA1BBB1B51E107C06A
:100C9000AA1FBB1FA617B70710F0A61BB70B881F0C
:100CA000991F5A95A9F780959095BC01CD0108959B
:100CB000EE0FFF1F0590F491E02D099481E090E084
:100CC000F8940C94630610E0C2E6D0E004C0FE0184
:100CD0000E9458062196C336D107C9F7F894FFCF72
:100CE0000000000011018D00DA00B800CC005801AE
:100CF000000000004A028D009E02B6023102490245
:0C0D0000536F6C6F20475053000D0A0029
:00000001FF
