:100000000C94AB000C94D3000C94D3000C947A02A3
:100010000C947A020C947A020C94D3000C94D300C2
:100020000C94D3000C94D3000C94D3000C94D30004
:100030000C94D3000C94D3000C94D3000C94D300F4
:100040000C9417130C94D3000C94EE0F0C94C80F5F
:100050000C94D3000C94D3000C94D3000C94D300D4
:100060000C9461130C94D300C71DE31D221E781E4F
:10007000C91E4F1FC11F862086208620EA1F8620AA
:100080008620862086208620862086208620862040
:1000900009208620862086208620862086208620AD
:1000A000862086202620AC17C617DB17F617011806
:1000B0003F18461850185B186A186A186A186A18A8
:1000C0006A186A186A186A186A186A186A186A1820
:1000D0006A186A186A186A186A186A186A186A1810
:1000E0006A186A186A18AC17C117C617DB17F61713
:1000F00001181C18271832180000000024002700DF
:100100002A0000000000250028002B00000000004D
:100110002300260029000404040404040404020249
:100120000202020203030303030301020408102076
:100130004080010204081020010204081020000081
:100140000008000201000003040700000000000096
:10015000000089205D1B11241FBECFEFD8E0DEBF59
:10016000CDBF15E0A0E0B1E0EEE3FBE402C00590F6
:100170000D92AA36B107D9F728E0AAE6B5E001C08A
:100180001D92AA31B207E1F710E0CAEAD0E004C03C
:100190002197FE010E949D21C93AD107C9F70E940B
:1001A000731B0C9492250C9400002091C105309192
:1001B000C2052817390771F49091C0058091BF05D9
:1001C000981741F0E091C005F0E0E158FA4F8081C6
:1001D00090E008958FEF9FEF089508951F93CF93B8
:1001E000DF93DC015C962D913C915D9721153105E3
:1001F00039F481E090E013969C938E9312973DC062
:100200005196ED91FC91529750969C915097892F61
:1002100080951FB75E964C915E9741FB772770F9EA
:1002200041FD6095F8944081772311F0492B01C07E
:1002300048234083E9012197F1F748E0508160FFAE
:1002400002C0592B01C058235083E9012197F1F7CF
:100250006695415099F7772321F090818923808317
:1002600003C08081982B90831FBF5C968D919C91D9
:100270005D970197F1F721E030E0C901DF91CF915F
:100280001F9108952091C1053091C20528173907A3
:1002900071F48091BF052091C00590E0805C9F4F74
:1002A000821B910960E470E00E946721089580E05C
:1002B00090E008952091C1053091C20528173907B3
:1002C000B9F49091C0058091BF05981789F0E0912D
:1002D000C005F0E0E158FA4F80812091C00530E080
:1002E0002F5F3F4F2F7333272093C00590E0089571
:1002F0008FEF9FEF0895E091C105F091C205E817D7
:10030000F90769F4A389B4899C918589809589232B
:100310008C931092C2051092C10581E0089580E08F
:1003200008950895CF92DF92EF92FF920F931F935B
:10033000CF93DF937C01262F972F8A0180916B0644
:10034000882391F0C62FD72F6E01C40ED51ECC1571
:10035000DD0571F06991D701ED91FC910190F0817B
:10036000E02DC7010995F3CF642F822F0E948F14CF
:10037000C801DF91CF911F910F91FF90EF90DF9017
:10038000CF900895CF93DF931F92CDB7DEB76983E7
:1003900020916B062223D1F020918D06203240F06F
:1003A00021E030E0FC013383228380E090E015C03F
:1003B00080916C06E82FF0E0E359F94F9981908322
:1003C0008F5F80936C0680938D0605C061E0CE013F
:1003D00001960E948F1481E090E00F90DF91CF9101
:1003E00008950C94AA240C94AA24CF93DF93EB01D4
:1003F000882329F0682F86ED97E00E94EE00CA302E
:10040000D1052CF460E386ED97E00E944D0F6AE081
:1004100070E080E090E00E94B510BE0186ED97E0AC
:10042000DF91CF910C94271B0F931F93CF93DF93F2
:10043000EC01162F042F1B821A8288EE93E0A0E0B5
:10044000B0E08C839D83AE83BF8387E191E0998385
:1004500088831F8A1E8A198E188E1B8E1A8E1D8EF7
:100460001C8E6E8D6E7F20FB61F96E8F66956170BC
:1004700081E06827842F0E94491061E0802F0E944C
:100480007910402F50E0FA01E65DFE4FE491E88BD1
:10049000FA01EA5EFE4FE491F0E0EE0FFF1FEE5F1F
:1004A000FE4F859194919A8B898B60E0812F0E94F9
:1004B00079108E8D81FD04C061E0812F0E9449106A
:1004C0001C87612F70E0FB01E65DFE4FE491ED8734
:1004D000FB01EA5EFE4FE491F0E0EE0FFF1FE45FE8
:1004E000FE4F859194919F878E87DF91CF911F91C9
:1004F0000F9108951F920F920FB60F9211242F9310
:100500003F934F935F936F937F938F939F93AF939B
:10051000BF93EF93FF93E091C105F091C20530972F
:1005200009F451C0968DA685B785858591FF04C0D5
:100530009C91892329F447C09C91892309F043C0E9
:10054000A389B4899C918589809589238C93868918
:1005500097890197F1F7608D718DA685B7855585CF
:1005600038E020E0CB010197F1F7822F90E09595DC
:100570008795282F4C91452309F02068315091F739
:10058000868D81FD20958091BF0590E001968F7347
:1005900099273091C005381749F0A091BF05B0E008
:1005A000A158BA4F2C938093BF0503C0868D8160FC
:1005B000868F828D938D0197F1F7A389B4899C91E1
:1005C0008589892B8C93FF91EF91BF91AF919F917A
:1005D0008F917F916F915F914F913F912F910F90EC
:1005E0000FBE0F901F901895CF93DF93EC018A8D6B
:1005F0009B8D892BF1F08091C1059091C2058C17DC
:100600009D07B9F0009711F00E947B018E8D8E7FBF
:100610008E8F1092BF051092C005D093C205C09373
:10062000C105EB89FC8990818D89892B808381E0CC
:1006300001C080E0DF91CF91089560937B057093B6
:100640007C0580937D0590937E05DC01CB01845D64
:100650009E4FAF4FBF4F8093770590937805A0933F
:100660007905B0937A0582E090E0909376058093C7
:1006700075050E94EF106093710570937205809369
:100680007305909374050895CF92DF92EF92FF92D5
:100690000F931F930E94EF10C0907105D0907205C8
:1006A000E0907305F09074058B019C010C191D09F5
:1006B0002E093F0980917B0590917C05A0917D05D5
:1006C000B0917E05083E134021053105D0F001961A
:1006D000A11DB11D80937B0590937C05A0937D05A2
:1006E000B0937E05B701A60148515C4F6F4F7F4F15
:1006F0004093710550937205609373057093740570
:10070000C9CF409177055091780560917905709136
:100710007A0584179507A607B707E8F0E0916F05FB
:10072000F09170053097B9F0099561157105810553
:10073000910519F00E941D030EC081E090E0209108
:10074000750530917605232B11F480E090E09093AD
:1007500076058093750560917B0570917C0580918D
:100760007D0590917E051F910F91FF90EF90DF9096
:10077000CF9008954F925F926F927F928F929F9247
:10078000AF92BF92CF92DF92EF92FF920F931F939F
:10079000CF93DF934B015C0180916B0590916C05C9
:1007A000A0916D05B0916E0588169906AA06BB0644
:1007B00009F4C2C08CE3C82ED12CE12CF12CC50168
:1007C000B401A70196010E947B2160938E06CA01A5
:1007D000B901A70196010E947B2160938F06CA018F
:1007E000B90128E130E040E050E00E947B2169013E
:1007F0007A0160939006CA01B9016C5F7F4F8F4FF9
:100800009F4F27E030E040E050E00E947B216F5F87
:1008100060939106412C512C320140E004E610E037
:10082000C0E9D1E0242F30E02E54384FF901E370B5
:10083000FF27309789F4C901B8010E946721892BED
:1008400031F4C901BE010E946721892B29F48EE68B
:1008500091E0A0E0B0E004C08DE691E0A0E0B0E05F
:10086000480E591E6A1E7B1ED301C201AA27BB2750
:10087000C816D906EA06FB0610F04F5FD3CF4093A7
:100880009406309799F4C90164E670E00E946721EC
:10089000892B39F4C90160E971E00E946721892B35
:1008A00029F48EE691E0A0E0B0E004C08DE691E08E
:1008B000A0E0B0E0481A590A6A0A7B0AC418D508B1
:1008C000E608F708C90164E670E00E946721EC01C0
:1008D000C90160E971E00E946721AFE2B1E020E068
:1008E000213039F4309749F4209729F4009729F4FE
:1008F00002C04C9103C04DE101C04CE150E060E00A
:1009000070E0C416D506E606F70640F0C41AD50A0C
:10091000E60AF70A2F5F11962C3011F72F5F20930C
:100920009306C394C092920680926B0590926C05D8
:10093000A0926D05B0926E05DF91CF911F910F913E
:10094000FF90EF90DF90CF90BF90AF909F908F90EF
:100950007F906F905F904F900895089508950F9342
:100960001F93CF93DF9380916A058111A2C061E04C
:1009700083E00E94491083E00E942010BC018DE9B1
:1009800096E00E94271B6DE971E08DE996E00E94D8
:10099000C60F86ED97E00E94F40262E370E080E00B
:1009A00090E00E94B510C0E0D0E065E070E080E02B
:1009B00090E00E94B5106AE186ED97E00E94EE009B
:1009C0006AE186ED97E00E94EE006AE186ED97E02D
:1009D0000E94EE006AE070E080E090E00E94B510B6
:1009E0000AE010E086ED97E00E944201892B09F4AD
:1009F00048C086ED97E00E945A01CE9709F041C0A9
:100A000060EB71E08DE996E00E94C60FBE018DE9B2
:100A100096E00E94271B6AEB71E08DE996E00E9448
:100A2000B20F65E070E080E090E00E94B5106CE5E8
:100A300072E086ED97E00E94B20FC8ECD0E086ED40
:100A400097E00E944201892B21F086ED97E00E94F9
:100A50005A012197A1F765E070E080E090E00E94E4
:100A6000B5106CE572E08DE996E00E94B20F6CEB78
:100A700071E08DE996E00E94B20F81E080936A05F3
:100A800014C00150110909F0ADCF65E070E080E0BD
:100A900090E00E94B510C233D10549F468EC71E0D2
:100AA0008DE996E00E94B20F80E090E002C02196AE
:100AB0007CCFDF91CF911F910F910895CF93DF935A
:100AC00062E370E080E090E00E94B5100E94440371
:100AD0000E94BA03CEE8D6E06C8170E080E00E940C
:100AE000F50162E370E080E090E00E94B5100E94A2
:100AF00044030E94BA036D8170E08FE20E94F50109
:100B000062E370E080E090E00E94B5100E94440330
:100B10000E94BA036E8170E06E54784F8FE20E949B
:100B2000F50162E370E080E090E00E94B5100E9461
:100B300044030E94BA036A8170E08BE30E94F501CE
:100B400062E370E080E090E00E94B5100E944403F0
:100B50000E94BA03698170E08AE30E94F50162E3B2
:100B600070E080E090E00E94B5100E9444030E9473
:100B7000BA03688170E08AE30E94F50162E370E0E5
:100B800080E090E00E94B5106BE386ED97E0DF9186
:100B9000CF910C944D0FCF93DF93EC0164E670E09E
:100BA00080E090E00E94B5100E945E0564E670E06F
:100BB00080E090E00E94B51066EC71E086ED97E071
:100BC0000E94C60FBE0186ED97E00E94271B60E9D8
:100BD00074E086ED97E00E94C60F64E170E080E06B
:100BE00090E00E94B5104091990650919A0660914C
:100BF0009B0670919C0626E030E086ED97E00E940F
:100C00004B0F64E170E080E090E00E94B5106BE370
:100C100086ED97E00E944D0F409195065091960603
:100C2000609197067091980626E030E086ED97E097
:100C30000E944B0F64E170E080E090E00E94B510EC
:100C40006BE386ED97E00E944D0F64E170E080E079
:100C500090E00E94B5104091C3055091C405609189
:100C6000C5057091C60523E030E086ED97E00E944F
:100C70004B0F6CE572E086ED97E0DF91CF910C941D
:100C8000B20FCF93DF93EC0166E174E08DE996E05B
:100C90000E94C60FCA30D1052CF460E38DE996E0BE
:100CA0000E944D0FBE018DE996E0DF91CF910C942B
:100CB000271BCF92DF92EF92FF920F931F93CF9358
:100CC000DF938C01EB0161E083E00E94491061E059
:100CD0008DE00E9449106BED71E08DE996E00E9475
:100CE000C60F6AE070E080E090E00E94B51065EE0B
:100CF00071E08DE996E00E94C60F88E40E94CF1A49
:100D000060EF71E08DE996E00E94C60F8CEA90E0FA
:100D10000E946D1A8FE090E00E946D1A0E94721A74
:100D20006AE070E080E090E00E94B5106EEF71E044
:100D30008DE996E00E94C60F88E40E94CF1A81E5F3
:100D400090E00E946D1A0E94721A64E170E080E0E7
:100D500090E00E94B5106EE072E08DE996E00E948E
:100D6000C60F64E272E08DE996E00E94C60F88E447
:100D70000E94CF1A8AEA90E00E946D1A0E94721AAD
:100D800066E372E08DE996E00E94C60F62E088E4B7
:100D90000E94D91A10922306809322068AE397E0D4
:100DA0000E94030EF801918380838AE397E00E94FA
:100DB000030E9C0199838883BC01990F880B990BC2
:100DC000253631053CF00E94EE2220E030E04AE773
:100DD00054E410C02B3031053CF00E94EE2220E09C
:100DE00030E048EC52E406C00E94EE2220E030E001
:100DF00040E251E40E944B226B017C01F8016081CA
:100E00007181072E000C880B990B0E94EE229B012A
:100E1000AC01C701B6010E94DA216B017C0163E4D9
:100E200072E08DE996E00E94C60F23E0B701A601AB
:100E30008DE996E00E9497096AE572E08DE996E0F7
:100E40000E94540F88819981807F992744E6489FAA
:100E50009001499F300D1124832F880F880B388310
:100E600089836BE572E08DE996E00E94C60F62E32C
:100E700070E080E090E00E94B51061E083E00E94A5
:100E8000491060E08DE00E944910C701B601DF9172
:100E9000CF911F910F91FF90EF90DF90CF90089529
:100EA0000F931F93CF93DF9300D000D0CDB7DEB761
:100EB000873609F493C01CF5873409F49EC03CF4CE
:100EC0008D3009F4C8C1833409F4A9C0BEC181368C
:100ED00009F447C0833609F49BC0843509F0B5C1D5
:100EE00060E083E00E94491083E00E942010BC0172
:100EF0008DE996E00E94271B67E772E0A8C1823760
:100F000009F49BC1A4F48C3609F4D0C08F3609F4DF
:100F1000A2C1883609F099C181E10E942010BC016C
:100F20008DE996E00E94271B67EB72E090C1843741
:100F300069F10CF4A8C0873709F087C161E083E04C
:100F40000E9449106EEB72E08DE996E00E94C60F98
:100F500068EE73E080E090E00E94B51001E010E0E0
:100F60006BC082E00E94201061E0892B09F060E0F4
:100F700082E00E94491082E00E942010BC018DE9AD
:100F800096E00E94271B6DE572E061C183E00E943C
:100F9000201061E0892B09F060E083E00E94491095
:100FA00083E00E942010BC018DE996E00E94271B7F
:100FB00064E672E08DE996E00E94C60FBE016F5FA5
:100FC0007F4FCE0103960E9459066093C30570932C
:100FD000C4058093C5059093C6053DC161E084E0DA
:100FE0000E94491065E872E08DE996E00E94B20F18
:100FF00085EF97E00E94F4022EC160E084E00E9439
:1010000049106FE872E08DE996E00E94B20F23C1AB
:1010100061E085E00E9449106AE972E018C185E04C
:101020000E942010892B09F416C160E085E00E941F
:10103000491068EA72E00BC1B80186ED97E00E94A2
:10104000271B65ED72E086ED97E00E94B20F64E623
:1010500070E080E090E00E94B5100F5F1F4F0A30F3
:10106000110551F768EE73E080E090E00E94B51042
:1010700064EE72E08DE996E00E94C60F60E083E0C6
:101080000E944910E8C061E083E00E94491086EDAB
:1010900097E00E94F40210926A050E94AF0484E671
:1010A0008093C70581E08093C905D5C084E680930D
:1010B000C70561E083E00E94491060E082E00E9481
:1010C000491064EF71E080E090E00E94B51064EF99
:1010D00072E08DE996E00E94C60F6091C80581E03C
:1010E000682770E08DE996E00E94271B6CE572E0AE
:1010F0008DE996E00E94B20F86ED97E00E94F4021F
:101100008091C80581117BC000E010E06CE572E0C1
:1011100086ED97E00E94B20F6AE186ED97E00E94AB
:10112000EE006AE186ED97E00E94EE006AE186ED4E
:1011300097E00E94EE006CE572E086ED97E00E9479
:10114000B20F86ED97E00E944201892B91F086ED67
:1011500097E00E945A01CE9761F4B8018DE996E0BC
:101160000E94271B6AEB71E08DE996E00E94B20FA6
:1011700005C00F5F1F4F0431110541F664E170E0B7
:1011800080E090E00E94B51081E090E00E947C2514
:10119000082F10E061E0680F81E090E00E94842554
:1011A0006CE572E086ED97E00E94B20F6AE070E0B5
:1011B00080E090E00E94B5106CE572E086ED97E06B
:1011C0000E94B20F6AE070E080E090E00E94B510EB
:1011D0006FEF72E086ED97E00E94C60F0A301105AE
:1011E00034F46DE073E086ED97E00E94C60FB8011D
:1011F00086ED97E00E94271B6FE073E007C06AE16D
:1012000086ED97E00E94EE006CE572E086ED97E0D7
:101210000E94B20F6AE070E080E090E00E94B5109A
:1012200064E173E086ED97E00E94B20F9091C805EB
:1012300081E089278093C8050EC060E081E090E0DE
:101240000E94842567E473E002C069E673E08DE9DB
:1012500096E00E94C60F81E090E00F900F900F90F3
:101260000F90DF91CF911F910F910895FC01138E84
:10127000128E118E108E178A168A8EE393E0958F48
:10128000848F8485863108F04DC02DE831E0378B9E
:10129000268B2CE333E0318F208F24E632E0338F2E
:1012A000228F90916800883050F021E08E3008F451
:1012B00020E081E001C0880F2A95EAF701C084E0B0
:1012C000892B809368008485883038F08E3040F018
:1012D000863148F020E030E008C02DE630E005C05F
:1012E0002BE630E002C02CE630E0348B238B8830D4
:1012F00030F491E001C0990F8A95EAF70EC0282FCB
:1013000030E08E3018F42850310902C02E503109D7
:1013100091E001C0990F2A95EAF7958B848D958D00
:101320000197F1F7CF010C94F4020E9442254F92ED
:101330005F926F927F928F929F92AF92BF92CF9265
:10134000DF92EF92FF92CF93DF93EC016A017B0172
:10135000B22E9A01AB01C701B6010E941024882366
:1013600019F062E773E027C026013701E89477F8A7
:101370002FEF3FEF4FE75FE7C301B2010E94102458
:1013800081110DC02FEF3FEF4FE75FE7C301B201BF
:101390000E94462218161CF466E773E00CC02FEF7B
:1013A0003FEF4FE75FE4C701B6010E949E23181686
:1013B0009CF46AE773E0CE01DF91CF91FF90EF904C
:1013C000DF90CF90BF90AF909F908F907F906F9065
:1013D0005F904F900C94540F2FEF3FEF4FE75FEC6F
:1013E000C701B6010E94462287FDE3CF20E030E02E
:1013F000A901C701B6010E94462287FF0AC06DE21B
:10140000CE010E944D0F4C01F7FAF094F7F8F094DA
:1014100002C0812C912CA12C60E070E080E09FE361
:10142000AB1441F020E030E040E251E40E944B2256
:10143000A394F6CF9B01AC01C701B6010E94DA214B
:101440002B013C010E94BD226B017C010E94EC2219
:101450009B01AC01C301B2010E94D9212B013C01C7
:101460002AE0B701A601CE010E94690F7C01E80CB9
:10147000F91CBB2039F066E274E0CE010E94540FE3
:10148000E80EF91EDB2CDD2029F120E030E040E2FF
:1014900051E4C301B2010E94A3232B013C010E942D
:1014A000BD224B01A12CB12C2AE0B501A401CE0133
:1014B0000E94690FE80EF91EC501B4010E94EC22DA
:1014C0009B01AC01C301B2010E94D9212B013C0157
:1014D000DA94D9CFC701DF91CF91FF90EF90DF90E1
:1014E000CF90BF90AF909F908F907F906F905F90C4
:1014F0004F9008952F923F924F925F926F927F92FA
:101500008F929F92AF92BF92CF92DF92EF92FF9213
:101510000F931F93CF93DF93CDB7DEB7C854D10994
:101520000FB6F894DEBF0FBECDBF1DAE1EAE1FAE10
:101530008CE0E3E2F1E0DE01D19601900D928A9514
:10154000E1F765E070E080E090E00E94B51003E014
:1015500010E0BE016F5F7F4F86E597E00E94381272
:1015600065E070E080E090E00E94B5100150110944
:1015700081F7BE016F5F7F4F86E597E00E943812CA
:101580006091590770915A076856754C072E000CE8
:10159000880B990B0E94EE2269AB7AAB8BAB9CABAC
:1015A00060915B0770915C076856754C072E000CC4
:1015B000880B990B0E94EE226DAB7EAB8FAB98AF80
:1015C00060915D0770915E076856754C072E000CA0
:1015D000880B990B0E94EE2269AF7AAF8BAF9CAF5C
:1015E0000E94EF1027966CAF7DAF8EAF9FAF27970D
:1015F0000E94EF10DC01CB0127962CAD3DAD4EAD26
:101600005FAD2797821B930BA40BB50B88389341D2
:10161000A105B10508F071C12DAD8EAD90E0820F2E
:10162000911D2FAD820F911D02974CF06EE773E074
:101630008DE996E00E94B20F81E090E060C18E01DA
:101640000B5D1F4F9E012F5C3F4F22963FAF2EAF89
:101650002297212C312CBE016F5F7F4F86E597E0EA
:101660000E9438126091590770915A076856754C5C
:10167000072E000C880B990B0E94EE226DA37EA30F
:101680008FA398A760915B0770915C076856754CB3
:10169000072E000C880B990B0E94EE2269A77AA7EF
:1016A0008BA79CA760915D0770915E076856754C8B
:1016B000072E000C880B990B0E94EE226DA77EA7C7
:1016C0008FA798AB29961FAF0EAF2997F80180809E
:1016D0009180A280B380F09103012396FFAF2397FE
:1016E0002296EEADFFAD2297C080D180E280F380DC
:1016F0002396FFAD23976F2F70E080E090E00E946B
:10170000EC2220E030E048EC52E40E94DA21A7010C
:1017100096010E94A32320E030E048EC52E40E94AE
:101720004B222B013C019B01AC01C501B4010E947D
:101730009E231816FCF064E670E023962FAD2397E5
:10174000621B7109072E000C880B990B0E94EE2278
:10175000A70196010E94A32320E030E048EC52E468
:101760000E944B229B01AC01C501B4010E9446229C
:1017700087FF9EC064E170E080E090E00E94B510B9
:10178000BE016F5F7F4F86E597E00E94381260913F
:10179000590770915A076856754C072E000C880B34
:1017A000990B0E94EE226DA37EA38FA398A7609150
:1017B0005B0770915C076856754C072E000C880B10
:1017C000990B0E94EE2269A77AA78BA79CA760912C
:1017D0005D0770915E076856754C072E000C880BEC
:1017E000990B0E94EE226DA77EA78FA798ABF801F8
:1017F00080809180A280B380A3019201C501B401D1
:101800000E949E231816FCF064E670E02396FFAD5C
:1018100023976F1B7109072E000C880B990B0E94F0
:10182000EE22A70196010E94A32320E030E048ECBD
:1018300052E40E944B229B01AC01C501B4010E94FD
:10184000462287FF3BC0EDE3F0E0EC0FFD1FE20D09
:10185000F31D21E020836FE973E08DE996E00E949B
:10186000C60FB1018DE996E00E94271B63EA73E081
:101870008DE996E00E94C60F22E030E0B701A60194
:101880008DE996E00E944B0F64EB73E08DE996E0E2
:101890000E94C60F22E0B501A4018DE996E00E94E6
:1018A00097096AE572E08DE996E00E94540F06C040
:1018B00065E070E080E090E00E94B5100C5F1F4F83
:1018C0002996EEADFFAD299780819181A281B381E8
:1018D0002296EEADFFAD229781939193A193B193A0
:1018E0002296FFAFEEAF2297FFEF2F1A3F0A23E0B9
:1018F0002216310409F0AFCE7BCE80E090E0C85BC9
:10190000DF4F0FB6F894DEBF0FBECDBFDF91CF9192
:101910001F910F91FF90EF90DF90CF90BF90AF900D
:101920009F908F907F906F905F904F903F902F90FF
:101930000895CF92DF92EF92FF920F931F93CF9370
:10194000DF936C017A018B01C0E0D0E0CE15DF059A
:1019500089F0D8016D918D01D601ED91FC91019036
:10196000F081E02DC6010995892B11F47E0102C09A
:101970002196ECCFC701DF91CF911F910F91FF907E
:10198000EF90DF90CF900895FC01918D828D981794
:1019900061F0828DDF01A80FB11D5D968C91928D53
:1019A0009F5F9F73928F90E008958FEF9FEF089550
:1019B000FC01918D828D981731F0828DE80FF11D19
:1019C000858D90E008958FEF9FEF0895FC01918D34
:1019D000228D892F90E0805C9F4F821B91098F732D
:1019E000992708958DE996E00E94E60C21E0892B65
:1019F00009F420E0822F0895FC01848DDF01A80FF7
:101A0000B11DA35ABF4F2C91848D90E001968F7326
:101A10009927848FA689B7892C93A089B1898C9145
:101A200080648C93938D848D981306C00288F3890B
:101A3000E02D80818F7D80830895EF92FF920F9338
:101A40001F93CF93DF93EC0181E0888F9B8D8C8D6A
:101A5000981305C0E889F989808185FD24C0F62E98
:101A60000B8D10E00F5F1F4F0F731127E02E8C8D31
:101A7000E8120CC00FB607FCFACFE889F98980811B
:101A800085FFF5CFCE010E94FC0CF1CF8B8DFE01BE
:101A9000E80FF11DE35AFF4FF0820B8FEA89FB89B3
:101AA0008081806207C0EE89FF896083E889F989B7
:101AB00080818064808381E090E0DF91CF911F91ED
:101AC0000F91FF90EF900895CF93DF93EC01888DF5
:101AD0008823C9F0EA89FB89808185FD05C0A88932
:101AE000B9898C9186FD0FC00FB607FCF5CF8081B8
:101AF00085FFF2CFA889B9898C9185FFEDCFCE0102
:101B00000E94FC0CE7CFDF91CF91089580E090E038
:101B1000892B29F00E94F20C81110C940000089589
:101B2000833081F028F4813099F08230A1F008955B
:101B30008730A9F08830B9F08430D1F480918000EA
:101B40008F7D03C0809180008F77809380000895FF
:101B500084B58F7702C084B58F7D84BD0895809150
:101B6000B0008F7703C08091B0008F7D8093B0006C
:101B700008953FB7F89480911E0690911F06A0919A
:101B80002006B091210626B5A89B05C02F3F19F06D
:101B90000196A11DB11D3FBFBA2FA92F982F8827ED
:101BA000820F911DA11DB11DBC01CD0142E0660F48
:101BB000771F881F991F4A95D1F7089580912206B3
:101BC00090E020912306821B91090895FC01638710
:101BD000089585ED8093BC008091BC0084FDFCCF0E
:101BE00010926A0608950895E091230680912206D6
:101BF000E81730F4F0E0EC5DF94F808190E0089553
:101C00008FEF9FEF089590912306809122069817F9
:101C100050F4E92FF0E0EC5DF94F208130E09F5F58
:101C20009093230602C02FEF3FEFC90108950F9351
:101C30001F93CF93DF938C01EB0188E2FB0111929C
:101C40008A95E9F74BE050E069E475E0CE010E9427
:101C500047251B8681E090E0A0E0B0E08C879D875F
:101C6000AE87BF87F80184859585A685B785888B63
:101C7000998BAA8BBB8B82E090E0A0E0B0E08C8BCC
:101C80009D8BAE8BBF8B1CA21DA21EA21FA2188E05
:101C9000198E1A8E1B8E1C8E1D8E1E8E1F8E18A2E4
:101CA00019A21AA21BA2DF91CF911F910F91089543
:101CB0000F931F93CF93DF938C01EB0188E2FB011D
:101CC00011928A95E9F74BE050E069E475E0CE01A6
:101CD0000E9447251B8641E050E060E070E04C87A1
:101CE0005D876E877F87F80181859285A385B4859E
:101CF000888B998BAA8BBB8B4C8B5D8B6E8B7F8B70
:101D00001CA21DA21EA21FA2188E198E1A8E1B8E37
:101D10001C8E1D8E1E8E1F8E18A219A21AA21BA227
:101D2000DF91CF911F910F9108950F931F93CF9340
:101D3000DF938C01EB018EE10E94CF1A61E08AE310
:101D400097E00E94C2016C2F8AE397E00E94C201D3
:101D50000E94721AF801D287C187C038D10509F4F0
:101D60005BC0DCF4C034D105A9F1C036D10509F45B
:101D700042C0A09709F08AC080E090E8A9E8B4E4E6
:101D80008093090190930A01A0930B01B0930C0179
:101D900080E090E0A5E7B4E471C0C03CD10509F44F
:101DA0004CC0C03ED10509F459C0C03AD10509F074
:101DB0006DC080E090E0A8ECB3E4809309019093BB
:101DC0000A01A0930B01B0930C0180E090E8A1EB15
:101DD000B3E454C080E090ECA5E5B4E4809309013D
:101DE00090930A01A0930B01B0930C0180E090E066
:101DF000AEE3B4E443C080E090E8A7E2B4E48093AB
:101E0000090190930A01A0930B01B0930C0180E0AB
:101E100090E0A6E1B4E432C080E090E0A1EEB3E44B
:101E20008093090190930A01A0930B01B0930C01D8
:101E300080E090E0A8ECB3E421C080E090E0A5EA67
:101E4000B3E48093090190930A01A0930B01B0932E
:101E50000C0180E090E8A3E9B3E410C080E090E0DA
:101E6000A6E6B3E48093090190930A01A0930B01C5
:101E7000B0930C0180E090E0ADE4B3E48093050101
:101E800090930601A0930701B0930801DF91CF91D1
:101E90001F910F9108950C949709DC01ED91FC912D
:101EA0000190F081E02D09946115710579F0FB0135
:101EB00001900020E9F73197AF01461B570BDC0179
:101EC000ED91FC910280F381E02D099480E090E097
:101ED00008954F925F926F927F92EF92FF920F93CD
:101EE0001F93CF93DF93CDB7DEB7A1970FB6F894CA
:101EF000DEBF0FBECDBF7C01FA01CB0119A222309B
:101F000008F42AE08E010F5D1F4F422E512C612CE8
:101F1000712CBF01A30192010E947B21F901CA012A
:101F2000015011096A3014F4605D01C0695CD80188
:101F30006C93232B242B252B61F7B801C7010E943A
:101F4000540FA1960FB6F894DEBF0FBECDBFDF9140
:101F5000CF911F910F91FF90EF907F906F905F90C6
:101F60004F9008950F931F93CF93DF93EC010E943E
:101F7000540F8C016AE572E0CE010E94540F800F6D
:101F8000911FDF91CF911F910F9108950C94540FE1
:101F90001F920F920FB60F9211242F933F934F93DE
:101FA0005F936F937F938F939F93AF93BF93EF93C1
:101FB000FF938DE996E00E94FC0CFF91EF91BF9199
:101FC000AF919F918F917F916F915F914F913F91D1
:101FD0002F910F900FBE0F901F9018951F920F9288
:101FE0000FB60F9211242F938F939F93EF93FF932C
:101FF000E091AD06F091AE068081E091B306F091DC
:10200000B40682FD12C090818091B6068F5F8F73F7
:102010002091B706821751F0E091B606F0E0E35642
:10202000F94F958F8093B60601C08081FF91EF91A3
:102030009F918F912F910F900FBE0F901F90189529
:10204000CF93DF93282F30E0F901E25CFE4F8491BB
:10205000F901E65DFE4FD491F901EA5EFE4FC491AD
:10206000CC2391F081110E94900DEC2FF0E0EE0F47
:10207000FF1FE45FFE4FA591B491EC91ED2381E049
:1020800090E021F480E002C080E090E0DF91CF9109
:1020900008951F93CF93DF93282F30E0F901E25C7E
:1020A000FE4F8491F901E65DFE4FD491F901EA5E9D
:1020B000FE4FC491CC23C9F0162F81110E94900DC0
:1020C000EC2FF0E0EE0FFF1FEE5FFE4FA591B491F5
:1020D0008FB7F894111105C09C91ED2FE095E9237D
:1020E00002C0EC91ED2BEC938FBFDF91CF911F914C
:1020F0000895CF93DF9390E0FC01E65DFE4F2491BD
:10210000FC01EA5EFE4F8491882361F190E0880F24
:10211000991FFC01E850FF4FC591D491FC01EE5F7F
:10212000FE4FA591B491611109C09FB7F8948881C1
:10213000209582238883EC912E230BC0623061F4BA
:102140009FB7F8943881822F809583238883EC9100
:102150002E2B2C939FBF06C08FB7F894E8812E2BAF
:1021600028838FBFDF91CF9108958F929F92AF9276
:10217000BF92CF92DF92EF92FF926B017C010E949F
:10218000B90D4B015C01C114D104E104F104F1F07B
:102190000E94B90DDC01CB0188199909AA09BB0974
:1021A000883E9340A105B10570F321E0C21AD10821
:1021B000E108F10888EE880E83E0981EA11CB11C8E
:1021C000C114D104E104F10419F7DDCFFF90EF90C1
:1021D000DF90CF90BF90AF909F908F9008952FB7D2
:1021E000F89460911A0670911B0680911C069091DC
:1021F0001D062FBF08955F926F927F928F929F92DC
:10220000AF92BF92CF92DF92EF92FF920F931F9304
:10221000CF93DF93EC018B0184E2FB0111928A954D
:10222000E9F78EE10E94CF1A69E08AE397E00E9405
:10223000C2010E94721A61E08EE10E941D1B8AE3B6
:1022400097E00E94030E982E0E94721A90FEFFC023
:102250008EE10E94CF1A83E090E00E946D1A0E94E6
:10226000721A66E08EE10E941D1B8091220690E0AA
:1022700020912306821B910986309105ECF38AE3B5
:1022800097E00E94030E582E8AE397E00E94030E07
:10229000682E8AE397E00E94030E882E8AE397E077
:1022A0000E94030E982E8AE397E00E94030E782E78
:1022B0008AE397E00E94030EF52CE12CA701462942
:1022C0005C834B83D72CC12C9601282B3E832D8316
:1022D000B82CA12CC501892998878F836B8566232B
:1022E00009F440C0B9016950784F31E06F3E7F403A
:1022F00008F430E04950584F21E04F3E5F4008F469
:1023000020E0232B29F48950984F8F3E9F4050F1B5
:1023100089859A8580369105E1F04CF480329105EB
:10232000D9F080349105F1F460E670E017C0803A8E
:10233000910561F0803C910531F08038910591F470
:1023400060EA70E00BC060EE70E008C060EC70E026
:1023500005C060E870E002C060E470E0CE010E9459
:10236000950E5FCF84E290E0A0E0B0E0F8018083BA
:102370009183A283B3838C859D85AE85BF8584833D
:102380009583A683B78382E090E0A0E0B0E08087E9
:102390009187A287B3870E94EF10F801608B718B41
:1023A000828B938BC0900901D0900A01E0900B01C1
:1023B000F0900C016B817C81072E000C880B990B2F
:1023C0000E94EE22A70196010E944B2220E030E0FD
:1023D00048EC52E40E94A323F801648B758B868B32
:1023E000978B6D817E81072E000C880B990B0E94C4
:1023F000EE22A70196010E944B2220E030E048EC3B
:1024000052E40E94A323F801608F718F828F938F13
:102410006F817885072E000C880B990B0E94EE22A5
:10242000209105013091060140910701509108016A
:102430000E944B2220E030E048EC52E40E94A323AB
:10244000F801648F758F868F978F81E001C080E0DF
:10245000DF91CF911F910F91FF90EF90DF90CF9080
:10246000BF90AF909F908F907F906F905F900895F6
:102470007F928F929F92AF92BF92CF92DF92EF9214
:10248000FF920F931F93CF93DF938C01EB0184E2B4
:10249000FB0111928A95E9F789E10E94CF1A88EA37
:1024A00090E00E946D1A0E94721A66E089E10E9413
:1024B0001D1B8091220690E020912306821B91092A
:1024C00086309105ECF38AE397E00E94030E882E94
:1024D0008AE397E00E94030E782E8AE397E00E9439
:1024E000030EA82E8AE397E00E94030E982E8AE33B
:1024F00097E00E94030EB82E8AE397E00E94030E35
:10250000D72CC12CC82824E0D594C7942A95E1F78C
:10251000F801D482C382F92CE12CEA2834E0F59446
:10252000E7943A95E1F7F682E582982F88278B2980
:1025300054E0959587955A95E1F79087878384E2D3
:1025400090E0A0E0B0E088839983AA83BB83818573
:102550009285A385B4858C839D83AE83BF8381E000
:1025600090E0A0E0B0E088879987AA87BB870E94A7
:10257000EF10688B798B8A8B9B8BF8016381748158
:10258000072E000C880B990B0E94EE222FE632E1F9
:1025900043E85AE30E94A3232AE038EE4CE151E4D9
:1025A0000E94A3236C8B7D8B8E8B9F8BF8016581A2
:1025B0007681072E000C880B990B0E94EE222FE6E5
:1025C00032E143E85AE30E94A3232AE038EE4CE1CB
:1025D00051E40E94A323688F798F8A8F9B8FF80123
:1025E00067817085072E000C880B990B0E94EE22E4
:1025F0002FE632E143E85AE30E94A3232AE038EEB3
:102600004CE151E40E94A3236C8F7D8F8E8F9F8FAE
:1026100081E0DF91CF911F910F91FF90EF90DF90BC
:10262000CF90BF90AF909F908F907F9008951F9212
:102630000F920FB60F9211242F933F938F939F9376
:10264000AF93BF9380911A0690911B06A0911C0630
:10265000B0911D063091190623E0230F2D3720F489
:102660000196A11DB11D05C026E8230F0296A11DEC
:10267000B11D2093190680931A0690931B06A09310
:102680001C06B0931D0680911E0690911F06A09116
:102690002006B09121060196A11DB11D80931E0652
:1026A00090931F06A0932006B0932106BF91AF918F
:1026B0009F918F913F912F910F900FBE0F901F9080
:1026C00018951F920F920FB60F9211242F933F93DC
:1026D0004F935F936F937F938F939F93AF93BF932A
:1026E000EF93FF938091B900887F803609F49CC0F6
:1026F00068F5883209F45BC090F4803109F454C065
:1027000038F4882309F4F6C0883009F44DC0F6C0C7
:10271000883109F44CC0803209F45DC0EFC08034C8
:1027200009F468C048F4803309F455C0883309F0CF
:10273000E5C080936806D8C0803509F44FC088355D
:1027400009F45DC0883409F0D9C0D6C0883909F4CD
:10275000C7C0A8F4883709F467C038F4883609F48C
:1027600063C0803709F460C0C9C0883809F4B8C0B4
:10277000803909F45FC0803809F0C0C05BC0803B7D
:1027800009F486C038F4803A09F466C0883A09F43E
:102790007FC0B4C0803C09F4A7C0883C09F4A4C041
:1027A000883B09F48AC0AAC08091450610C0909168
:1027B000670680916606981770F5E091670681E0DC
:1027C0008E0F80936706F0E0EA5BF94F808180937B
:1027D000BB0085EC86C0809368068EC0E0916706DA
:1027E00081E08E0F809367068091BB00F0E0EA5B8A
:1027F000F94F808390916706809166066EC0E091E4
:10280000670681E08E0F809367068091BB00F0E041
:10281000EA5BF94F80838091690681116DC081E088
:102820008093440684EA61C083E080936A06109234
:102830001806CFCF80911806803208F051C0E09181
:10284000180681E08E0F809318068091BB00F0E09F
:10285000E850FA4F8083BDCF85EC8093BC00109286
:102860006A0680911806803230F4E0911806F0E094
:10287000E850FA4F10826091180670E0E091F6057A
:10288000F091F70588EF95E009951092180636C08B
:1028900084E080936A061092F5051092F405E091A9
:1028A000F205F091F30509958091F405811105C0B9
:1028B00081E08093F4051092D205E091F50581E066
:1028C0008E0F8093F505F0E0EE52FA4F80818093F1
:1028D000BB009091F5058091F405981708F479CF25
:1028E00085E88093BC000AC085EC8093BC00109200
:1028F0006A0604C0109268060E94E90DFF91EF91EC
:10290000BF91AF919F918F917F916F915F914F9107
:102910003F912F910F900FBE0F901F9018954091EF
:10292000F405262F30E0240F311D21323105DCF46F
:1029300020916A062430C9F4FC0180E090E08617FB
:1029400058F43091F4052191DC01AE52BA4FA30F37
:10295000B11D2C930196F3CF8091F405680F60931D
:10296000F40580E0089581E0089582E008951092D2
:102970006A0681E0809369061092440661E082E174
:102980000E94491061E083E10E944910E9EBF0E008
:1029900080818E7F808380818D7F808388E4809397
:1029A000B80085E48093BC0008950F931F93CF93E4
:1029B000DF93EC0160E070E0CB01E99120ED2E0F98
:1029C0002A30C0F4AAE0B0E09B01AC010E94B22121
:1029D0000E2FEE0F110B220B330BDC01CB01800FFE
:1029E000911FA21FB31FBC01CD0160537109810962
:1029F0009109E3CFDF91CF911F910F9108950F932C
:102A00001F93CF93C1E08091B9078D3221F0C0E0D0
:102A100009EB17E002C00AEB17E0C8010E94D514C9
:102A20009B01AC01A4E6B0E00E94B221F801DF01F5
:102A3000219130ED320F3A30D0F32E3269F51196F4
:102A40002C91119730ED320F3A3030F5022E000CF8
:102A5000330B205331094AE0429F8001439F100D00
:102A60001124012E000C220B330B600F711F821FEB
:102A7000931F12960C9120ED200F2A3068F4002E3F
:102A8000000C110B00531109012E000C220B330B0B
:102A9000600F711F821F931FCC2339F09095809592
:102AA000709561957F4F8F4F9F4FCF911F910F91E1
:102AB00008954F925F926F927F928F929F92AF9202
:102AC000BF92CF92DF92EF92FF92CF93DF9389EB89
:102AD00097E00E94D5142B013C0124E630E040E051
:102AE00050E00E947B219B01AC0160EA76E881E026
:102AF00090E00E9457216B017C01E9EBF7E08191A6
:102B000090ED980F9A30D8F38E3219F5EF0180E1ED
:102B1000882E87E2982EA12CB12CA99180ED8A0FE6
:102B20008A30B8F40A2E000CBB0BD097A501940193
:102B30000E94BD21C60ED71EE81EF91EC501B401B4
:102B40002AE030E040E050E00E947B2149015A0138
:102B5000E4CFC701B6016D5F7F4F8F4F9F4F26E0D7
:102B600030E040E050E00E947B2169017A01C3011E
:102B7000B20124E630E040E050E00E947B2160E4B6
:102B800072E48FE090E00E9457216C0D7D1D8E1D38
:102B90009F1DDF91CF91FF90EF90DF90CF90BF907E
:102BA000AF909F908F907F906F905F904F9008951F
:102BB0002F923F924F925F926F927F928F929F924D
:102BC000AF92BF92CF92DF92EF92FF920F931F933B
:102BD000CF93DF93CDB7DEB72C970FB6F894DEBF57
:102BE0000FBECDBF0E94EF106B017C0110E022E010
:102BF000A22E01E00E94EF10DC01CB018C199D098F
:102C0000AE09BF09803D9740A105B10508F09BC200
:102C100085EF97E00E944201892B61F385EF97E0F1
:102C20000E945A01B82E8091CC079091CD07A091B7
:102C3000CE07B091CF070196A11DB11D8093CC079F
:102C40009093CD07A093CE07B093CF0724E2B2169E
:102C500009F458C2E091CA072B153CF08AE0B81677
:102C600079F09DE0B9125BC20BC0AAE2BA1641F03E
:102C7000BCE2BB1254C28091B7078B258093B70783
:102C8000EF3008F027C2F0E0E754F84F108280914F
:102C9000B807882309F428C12091B9073FEB320F08
:102CA000822F022E000C990B363010F4C79707C004
:102CB0002156263018F48755910901C0C097282F56
:102CC0002295207F3091BA074FEB430F832F032EBD
:102CD000000C990B463010F4C79707C031563630B8
:102CE00018F48755910901C0C097820F9091B707DA
:102CF0008913F0C08091CB07882309F4EBC1809140
:102D0000D0079091D10701969093D1078093D00777
:102D10008091AB079091AC07A091AD07B091AE0741
:102D20008093A7079093A807A093A907B093AA0739
:102D30008091B3079091B407A091B507B091B60701
:102D40008093AF079093B007A093B107B093B207F9
:102D50008091C807882309F464C0813009F0B6C1A6
:102D60008091670790916807A0916907B0916A0701
:102D70008093630790936407A0936507B0936607F9
:102D800080916F0790917007A0917107B0917207C1
:102D900080936B0790936C07A0936D07B0936E07B9
:102DA0008091770790917807A0917907B0917A0781
:102DB0008093730790937407A0937507B093760779
:102DC00080917F0790918007A0918107B091820741
:102DD00080937B0790937C07A0937D07B0937E0739
:102DE00080918F0790919007A0919107B0919207E1
:102DF00080938B0790938C07A0938D07B0938E07D9
:102E00008091970790919807A0919907B0919A07A0
:102E10008093930790939407A0939507B093960798
:102E200055C18091870790918807A0918907B0913B
:102E30008A078093830790938407A0938507B093B4
:102E400086078091670790916807A0916907B09104
:102E50006A078093630790936407A0936507B09314
:102E600066078091770790917807A0917907B091D4
:102E70007A078093730790937407A0937507B093B4
:102E8000760780917F0790918007A0918107B0918C
:102E9000820780937B0790937C07A0937D07B09374
:102EA0007E078091A5079091A6079093A407809331
:102EB000A30780919F079091A007A091A107B091CF
:102EC000A20780939B0790939C07A0939D07B093C4
:102ED0009E07FCC08091D2079091D30701969093F2
:102EE000D3078093D207F6C09091C90791111CC0F7
:102EF000A9EBB7E040E555E09D01F90181919F0103
:102F0000882309F4E5C0FA019191AF018917A9F36B
:102F1000E3E6F5E08D91882309F4C3C29191891706
:102F2000C9F3A092C807D6C0E091C807E23009F4FF
:102F3000D1C08091B907882309F4CCC020E2E29F78
:102F4000F0011124E92B3197E932F10508F0C2C0F4
:102F5000ED5AFF4F0C949D210E94FF146093670768
:102F6000709368078093690790936A070E94EF1037
:102F70006093AB077093AC078093AD079093AE0757
:102F8000A9C091E0813409F07DC07DC00E9459152F
:102F900060937707709378078093790790937A0707
:102FA0000E94EF106093B3077093B4078093B50746
:102FB0009093B6078FC0833509F08CC08091770756
:102FC00090917807A0917907B0917A07B095A09574
:102FD000909581959F4FAF4FBF4F80937707909308
:102FE0007807A0937907B0937A0774C00E945915A7
:102FF00060937F0770938007809381079093820787
:1030000069C0873509F066C080917F07909180077D
:10301000A0918107B0918207B095A0959095819578
:103020009F4FAF4FBF4F80937F0790938007A09330
:103030008107B09382074EC00E94FF1460938F07F0
:1030400070939007809391079093920743C00E94DA
:10305000FF14609397077093980780939907909354
:103060009A0738C089EB97E00E94D51460936F07E8
:103070007093700780937107909372072BC091E053
:1030800081330CF490E09093CB0724C089EB97E058
:103090000E94562599279093A6078093A5071AC0EA
:1030A0000E94FF1460939F077093A0078093A1076D
:1030B0009093A2070FC00E94FF146093870770933C
:1030C00088078093890790938A0704C091E003C022
:1030D0000093C80790E08091C9078F5F8093C9076C
:1030E0001092CA0781E0AAE2BA1280E08093B80782
:1030F000992309F48DCD809115088F5F8093150871
:1031000011E086CD1092CA071092C9071092B70736
:10311000A092C8071092B8071092CB0779CDEE3075
:1031200040F481E08E0F8093CA07F0E0E754F84F37
:10313000B0828091B80781116BCD8091B7078B2544
:103140008093B70765CD112309F4A8C180911508B4
:1031500084300CF4A3C1C0907307D0907407E09042
:103160007507F090760780907B0790907C07A09081
:103170007D07B0907E078091AF079091B007A09136
:10318000B107B091B2078F3F9F4FAF4FBF4F11F0C4
:103190000E94EF102FEFC21629ECD2062AE9E206B0
:1031A0002BE3F20659F0C701B6010E94EE2220E09F
:1031B00034E244E759E40E944B2204C060E070E02E
:1031C0008AE794E46093990670939A0680939B062D
:1031D00090939C068FEFC81689ECD8068AE9E8061A
:1031E0008BE3F80659F0C501B4010E94EE2220E0FD
:1031F00034E244E759E40E944B2204C060E070E0EE
:103200008AE794E4609395067093960680939706F8
:103210009093980640906B0750906C0760906D07F4
:1032200070906E078090630790906407A090650788
:10323000B09066078091A7079091A807A091A90771
:10324000B091AA078F3F9F4FAF4FBF4F11F00E9421
:10325000EF10C301B20124E630E040E050E00E94EC
:103260007B2169837A838B839C836135710581051A
:10327000910518F00CE617E002C000ED17E084E6B7
:10328000C82ED12CE12CF12CC301B201A70196016B
:103290000E947B21CA01B901A70196010E947B21EE
:1032A0006D837E838F839887C301B20120E137E26B
:1032B00040E050E00E947B212C87C501B40120E44E
:1032C00032E44FE050E00E947B21322EC501B40170
:1032D00020E137E240E050E00E947B21CA01B901C1
:1032E000A70196010E947B216B8779878A87292E07
:1032F000C501B401A70196010E947B21CA01B90151
:10330000A70196010E947B216B017C0189819A8132
:10331000080F191FF801E25BF740E09394069D81C6
:1033200090939306AC85A093920630929006BB854D
:10333000B0938F06C0928E06AE2FB0E020E833E344
:1033400041EE51E00E94B2212B013C0122EB37E01B
:10335000FF2794E6A92EB12C00E911E0C901825B98
:1033600097408E179F07DCF4C90183709927892B3A
:1033700099F4C901B5010E946721892B31F4C90173
:10338000B8010E946721892B39F480E8480E81E555
:10339000581E81E0681E711C2F5F3F4FDFCF9F01D9
:1033A0002E54384FC90164E670E00E9467215C0129
:1033B000C90160E971E00E9467214C01E1E0F0E0A1
:1033C000890103701127AD81BE81EA17FB072CF537
:1033D000E230F10589F40115110571F4A114B1046D
:1033E00019F48114910441F490E8490E9BE3591EAD
:1033F00096E2691E711C0FC0DF01A25DBE4FAC9149
:10340000B0E020E831E541E050E00E94B221460EF4
:10341000571E681E791E3196D6CF232D30E0A0E1CD
:10342000BEE00E94A3214B015C01ACE3B0E02B8520
:1034300039854A85522D0E94B221860E971EA81EFC
:10344000B91EC80CD91CEA1CFB1CEC85AE2FB0E0E1
:10345000119720E831E541E050E00E94BD21C60E01
:10346000D71EE81EF91EC701B601640D751D861D25
:10347000971D0E941D030E94440360587F488F4F90
:103480009F4F0E941D031092150866E575E08DE9B7
:1034900096E00E94B20F81E090E006C080E090E0EC
:1034A00003C01092C80716CE2C960FB6F894DEBF54
:1034B0000FBECDBFDF91CF911F910F91FF90EF9085
:1034C000DF90CF90BF90AF909F908F907F906F9044
:1034D0005F904F903F902F900895682F8AE397E078
:1034E0000C94C20120918D0690911408213208F0AD
:1034F0004AC080916A068111FCCF32E030936A069F
:1035000031E0309369063FEF30936806109267060A
:1035100020936606ADE6B6E046E456E0FA013E2F9B
:10352000341B321718F43D913193F9CF10924506B0
:1035300020914506990F922B909345069091440651
:10354000913061F410924406909145069093BB002F
:103550009091BC0093FDF8CF95EC01C095EE90934F
:10356000BC0090916A069230E1F3909168069F3F0B
:1035700079F080916806803241F08091680680334E
:1035800031F084E005C081E003C082E001C083E047
:1035900010926C0610928D0610926B06089591E0C1
:1035A00090936B068093140810926C0610928D060F
:1035B000089590916A069111FCCF91E090936A066C
:1035C000909369062FEF2093680610926706260FE6
:1035D000209366069093450690914506880F892BA7
:1035E0008093450680914406813061F41092440630
:1035F000809145068093BB008091BC0083FDF8CF8D
:1036000085EC01C085EE8093BC0080916A06813014
:10361000E1F380916706861710F460916706A6E4CF
:10362000B6E024E236E0F9018E2F821B861718F4EB
:103630008D918193F9CF862F0895613208F060E271
:103640000E94D91A10922306809322060895CF92E1
:10365000DF92EF92FF920F931F93CF93DF936B0153
:10366000770FEE08FF08F7FE1BC0EC016DE20E9429
:103670004D0F8C0144275527BA014C195D096E097D
:103680007F092AE0CE010E94690F800F911FDF9110
:10369000CF911F910F91FF90EF90DF90CF90089501
:1036A0002AE0B701A601DF91CF911F910F91FF9002
:1036B000EF90DF90CF900C94690FCF93DF93C7E129
:1036C000D1E0D093D707C093D60786ED97E00E944C
:1036D0007B01D093F607C093F50785EF97E0DF9164
:1036E000CF910C947B01CF93DF93CDB7DEB7C85455
:1036F000D1090FB6F894DEBF0FBECDBF789484B564
:10370000826084BD84B5816084BD85B5826085BDDD
:1037100085B5816085BD80916E00816080936E006B
:10372000109281008091810082608093810080915D
:10373000810081608093810080918000816080930E
:1037400080008091B10084608093B1008091B000CE
:1037500081608093B00080917A00846080937A00C9
:1037600080917A00826080937A0080917A008160F3
:1037700080937A0080917A00806880937A0010921A
:10378000C100109223061092220610926C0610922D
:103790008D060E94B714E091AD06F091AE0682E06E
:1037A0008083E091A906F091AA0681E08083E091F0
:1037B000AB06F091AC0680EA80831092B506E091EA
:1037C000B106F091B20686E08083E091AF06F091F9
:1037D000B006808180618083E091AF06F091B006F1
:1037E000808188608083E091AF06F091B00680818F
:1037F00080688083E091AF06F091B00680818F7D74
:10380000808361E082E00E94791061E083E00E94A1
:10381000791061E084E00E94791061E085E00E9407
:10382000791060E08FE00E94791061E08DE00E94E5
:10383000791060E081E10E94791060E082E00E94EE
:10384000491085EF97E00E94360986ED97E00E94C7
:10385000360968EE73E080E090E00E94B5106CEBF2
:1038600073E08DE996E00E94B20F68EE73E080E0AD
:1038700090E00E94B5100E94AF0468EC70E080E018
:1038800090E00E94B51069EC73E086ED97E00E942D
:10389000B20F88ECC82ED12C00E010E0E12CF12C06
:1038A00086ED97E00E944201892B09F454C086ED11
:1038B00097E00E945A018E3259F465ED73E08DE96C
:1038C00096E00E94B20F67EE73E086ED97E052C07B
:1038D00090ED980F9A3078F49AE09E9D90019F9D0C
:1038E000300D11247901E80EF11C87FDFA9440E3B4
:1038F000E41AF10830C08C3271F5C80180509F4F36
:103900005C01FC01E0827801FFEFEF1AFF0A6DEE27
:1039100073E08DE996E00E94C60FB8018DE996E04C
:103920000E94271B6BEF73E08DE996E00E94C60FA3
:10393000F501408150E060E070E02AE08DE996E01A
:103940000E94690F6AE572E08DE996E00E94540FCB
:103950008701E12CF12C6AE070E080E090E00E94A9
:10396000B510F1E0CF1AD10809F09ACF6FEF73E0EC
:103970008DE996E00E94B20F60E083E00E9449105A
:103980001092C705109223061092220610926C0620
:1039900010928D060E94B71489E10E94CF1A60E24E
:1039A0008AE397E00E94C20167E58AE397E00E94FC
:1039B000C2010E94721A89E10E94CF1A60E28AE372
:1039C00097E00E94C2010E94721A61E089E10E94A0
:1039D0001D1B8AE397E00E94030E182F0E94721AA3
:1039E000173539F068E175E08DE996E00E94B20F75
:1039F000FFCF81E08093510780E090E00E94CB05EB
:103A000014E08091C9058823F9F086ED97E00E94C3
:103A10004201892B49F086ED97E00E945A01682FF8
:103A20008DE996E00E941D0D8DE996E00E94E60C5E
:103A3000892B19F18DE996E00E94C40C682F86ED60
:103A400097E00E94EE0019C08DE996E00E94E60C16
:103A5000892B99F08DE996E00E94C40C082F682FFD
:103A60008DE996E00E941D0D63E174E08DE996E01A
:103A70000E94C60F802F0E9450078091C80588239E
:103A800009F478C062E370E080E090E00E94B51035
:103A9000BE016B5D7F4F86E597E00E943812BE0144
:103AA0006F5F7F4F86E497E00E94FB1049AD5AADEF
:103AB0006BAD7CAD22E030E086ED97E00E944B0FCD
:103AC00060E974E086ED97E00E94C60F21964CAD48
:103AD0005DAD6EAD7FAD219722E030E086ED97E0E1
:103AE0000E944B0F60E974E086ED97E00E94C60FDC
:103AF00025964CAD5DAD6EAD7FAD259722E030E0F3
:103B000086ED97E00E944B0F60E974E086ED97E048
:103B10000E94C60F4D895E896F89788D22E030E062
:103B200086ED97E00E944B0F60E974E086ED97E028
:103B30000E94C60F498D5A8D6B8D7C8D22E030E03E
:103B400086ED97E00E944B0F60E974E086ED97E008
:103B50000E94C60F4D8D5E8D6F8D78A122E030E002
:103B600086ED97E00E944B0F6CE572E086ED97E0E2
:103B70000E94B20FE091C7058E2F90E08F31910522
:103B800008F0C4C2FC01EC5CFF4F0C949D2168E17D
:103B900074E08DE996E00E94B20F0E947A0A892BA8
:103BA00059F068E274E08DE996E00E94C60F8091BA
:103BB000C7058F5F8093C70562E370E080E090E007
:103BC0000E94B510A3C282E090E00E94CB050E9443
:103BD0004403209104014CE3249F900111246901C6
:103BE000330FEE08FF08DC01CB018C0D9D1DAE1DCF
:103BF000BF1D8093CE059093CF05A093D005B093C1
:103C0000D1050E94440320910101ECE32E9F900115
:103C100011246901330FEE08FF08DC01CB018C0D84
:103C20009D1DAE1DBF1D8093CA059093CB05A0932B
:103C3000CC05B093CD0587E60E94500783E60E942D
:103C40005007E1C10E94D815892BE9F10E94440375
:103C500020910401FCE32F9F900111246901330F8F
:103C6000EE08FF08DC01CB018C0D9D1DAE1DBF1DB4
:103C70008093CE059093CF05A093D005B093D10546
:103C80000E944403209101014CE3249F90011124E0
:103C90006901330FEE08FF08DC01CB018C0D9D1D7F
:103CA000AE1DBF1D8093CA059093CB05A093CC0594
:103CB000B093CD0568E374E08DE996E00E94C60FED
:103CC00083E090E012C00E944403C090CE05D090E3
:103CD000CF05E090D005F090D105C616D706E806CE
:103CE000F90608F013C284E090E00E94CB058BC176
:103CF0000E94D815892B81F564E670E080E090E0A1
:103D00000E94B51085E090E00E94CB0564E670E06B
:103D100080E090E00E94B51087E40E9450070E9466
:103D2000440320910201ECE32E9F900111246901CC
:103D3000330FEE08FF08DC01CB018C0D9D1DAE1D7D
:103D4000BF1D8093CE059093CF05A093D005B0936F
:103D5000D1056CE474E09EC00E944403C090CE057F
:103D6000D090CF05E090D005F090D105C616D706CB
:103D7000E806F90608F0CAC187E40E94500783E408
:103D80000E94500765E674E08DE996E00E94C60F38
:103D90005AC10E944403C090CA05D090CB05E09060
:103DA000CC05F090CD05C616D706E806F90618F43E
:103DB00083E40E9450070E944403C090CE05D09037
:103DC000CF05E090D005F090D105C616D706E806DD
:103DD000F906C8F5BE016F5F7F4FCE0185960E9440
:103DE00059066093C3057093C4058093C5059093ED
:103DF000C60564E670E080E090E00E94B51086E0C1
:103E000090E00E94CB0564E670E080E090E00E94C4
:103E1000B5100E94440320910201FCE32F9F900102
:103E200011246901330FEE08FF08DC01CB018C0D72
:103E30009D1DAE1DBF1D8093CE059093CF05A09311
:103E4000D005B093D1050E947A0A892B09F45EC18E
:103E50000E944403209104014CE3249F900111240B
:103E60006901330FEE08FF08DC01CB018C0D9D1DAD
:103E7000AE1DBF1D8093CE059093CF05A093D005B6
:103E8000B093D10587E60E94500783E60E94500751
:103E900069E774E08DE996E00E94C60FB4C00E9405
:103EA000D815892B09F451C083E40E9450070E9461
:103EB000D8150E94D8150E945E056AE874E086ED68
:103EC00097E00E94C60F4091990650919A06609122
:103ED0009B0670919C0626E030E086ED97E00E94FC
:103EE0004B0F6BE386ED97E00E944D0F40919506D6
:103EF00050919606609197067091980626E030E002
:103F000086ED97E00E944B0F6CE572E086ED97E03E
:103F10000E94B20F0E944403DC01CB01885F984FDE
:103F2000AF4FBF4F8093CE059093CF05A093D005A0
:103F3000B093D10562E974E08DE996E00E94C60F66
:103F40008091C7058F5F8093C7050E944403C0908E
:103F5000CE05D090CF05E090D005F090D105C616E3
:103F6000D706E806F90608F0D1C06CEA74E08DE9DE
:103F700096E00E94B20F87E40E9450071093C70595
:103F8000C5C00E94D815892B49F41093C70569EB69
:103F900074E08DE996E00E94B20FB8C00E9444031D
:103FA000C090CE05D090CF05E090D005F090D1051F
:103FB000C616D706E806F90608F0A8C01092C7058D
:103FC00066ED74E08DE996E00E94B20F87E40E94EE
:103FD00050079CC00E944403DC01CB014496A11D04
:103FE000B11D8093CE059093CF05A093D005B093DB
:103FF000D10561E085E00E94491062EF74E08DE92F
:1040000096E00E94B20F8091C7058F5F8093C7052D
:104010007DC00E944403C090CE05D090CF05E090B3
:10402000D005F090D105C616D706E806F90608F0C7
:104030006DC06FEF74E08DE996E00E94B20F60E012
:1040400085E00E9449101092C70560C06DE075E0E0
:104050008DE996E00E94B20F0E94D8150E94440399
:104060000E94BA036091900670E08DE996E00E948C
:10407000271B0E9444030E94BA0380918F0690E0A0
:104080000E9441060E9444030E94BA0380918E065A
:1040900090E00E94410662EB73E08DE996E00E9499
:1040A000C60F0E9444030E94BA036091920670E01A
:1040B0008DE996E00E94271B62EB73E08DE996E0A4
:1040C0000E94C60F0E9444030E94BA0360919306A7
:1040D00070E08DE996E00E94271B62EB73E08DE9AA
:1040E00096E00E94C60F0E9444030E94BA036091AA
:1040F000940670E06E54784F8DE996E00E94271B7D
:104100006AE572E08DE996E00E94540F0E94860DE8
:1041100078CCEDE9F6E01382128288EE93E0A0E01D
:10412000B0E084839583A683B7832FE331E03183A6
:10413000208325EC30E03587248724EC30E0378776
:10414000268720EC30E0318B208B21EC30E0338B64
:10415000228B22EC30E0358B248B26EC30E0378B41
:10416000268B118E128E138E148EEAE3F7E01382E3
:10417000128284839583A683B7838FE491E0918331
:10418000808320E04DE06CE085EF97E00E94140210
:1041900020E04AE06BE086ED97E00E941402E3E63F
:1041A000F7E04FEF5FEFBA0140835183628373837F
:1041B00010861186128613868FEF99ECAAE9BBE36D
:1041C000808B918BA28BB38B808F918FA28FB38FBB
:1041D00080A391A3A2A3B3A380A791A7A2A7B3A7EB
:1041E00080AB91ABA2ABB3AB40AF51AF62AF73AF9B
:1041F0008FEF90E09093A4078093A3074093A707C5
:104200005093A8076093A9077093AA074093AF073C
:104210005093B0076093B1077093B2071092B7073D
:104220001092B80782E08093C8071092C9071092D5
:10423000CA071092CB071092CC071092CD071092AC
:10424000CE071092CF071092D1071092D00710928C
:10425000D3071092D2071092B907E6E5F7E085E898
:1042600091E09183808381E394EDA0E0B0E08187C9
:104270009287A387B48714821382168215821086D0
:104280001782E6E4F7E087E791E09183808389E392
:1042900090E3A0E0B0E084879587A687B787138670
:1042A0001482138216821582108617820895DB010C
:1042B0008F939F930E94B221BF91AF91A29F800DD7
:1042C000911DA39F900DB29F900D1124089597FB0F
:1042D000072E16F4009407D077FD09D00E94C5215F
:1042E00007FC05D03EF4909581959F4F08957095F9
:1042F00061957F4F0895A1E21A2EAA1BBB1BFD01F9
:104300000DC0AA1FBB1FEE1FFF1FA217B307E407B4
:10431000F50720F0A21BB30BE40BF50B661F771F0C
:10432000881F991F1A9469F76095709580959095EC
:104330009B01AC01BD01CF010895EE0FFF1F059059
:10434000F491E02D0994A29FB001B39FC001A39FF7
:10435000700D811D1124911DB29F700D811D1124BE
:10436000911D08950E94A321A59F900DB49F900DCB
:10437000A49F800D911D11240895B7FF0C94B221C4
:104380000E94B221821B930B0895AA1BBB1B51E113
:1043900007C0AA1FBB1FA617B70710F0A61BB70BB5
:1043A000881F991F5A95A9F780959095BC01CD015A
:1043B00008955058BB27AA270E94F1210C9464232A
:1043C0000E94562338F00E945D2320F039F49F3F6D
:1043D00019F426F40C9453230EF4E095E7FB0C94A7
:1043E0004D23E92F0E94752358F3BA17620773070C
:1043F0008407950720F079F4A6F50C9497230EF422
:10440000E0950B2EBA2FA02D0B01B90190010C01E4
:10441000CA01A0011124FF27591B99F0593F50F4FC
:10442000503E68F11A16F040A22F232F342F442754
:10443000585FF3CF469537952795A795F04053954C
:10444000C9F77EF41F16BA0B620B730B840BBAF01C
:104450009150A1F0FF0FBB1F661F771F881FC2F787
:104460000EC0BA0F621F731F841F48F4879577959B
:104470006795B795F7959E3F08F0B0CF9395880F55
:1044800008F09927EE0F9795879508950E942923A4
:1044900008F481E008950E945F220C9464230E9436
:1044A0005D2358F00E94562340F029F45F3F29F025
:1044B0000C944D2351110C9498230C9453230E9477
:1044C000752368F39923B1F3552391F3951B550B8D
:1044D000BB27AA2762177307840738F09F5F5F4FD7
:1044E000220F331F441FAA1FA9F335D00E2E3AF016
:1044F000E0E832D091505040E695001CCAF72BD02E
:10450000FE2F29D0660F771F881FBB1F261737077E
:104510004807AB07B0E809F0BB0B802DBF01FF27B0
:1045200093585F4F3AF09E3F510578F00C944D231D
:104530000C9498235F3FE4F3983ED4F386957795E7
:104540006795B795F7959F5FC9F7880F911D969569
:10455000879597F90895E1E0660F771F881FBB1FC5
:10456000621773078407BA0720F0621B730B840B72
:10457000BA0BEE1F88F7E09508950E947D2388F01E
:104580009F5798F0B92F9927B751B0F0E1F0660F17
:10459000771F881F991F1AF0BA95C9F714C0B13058
:1045A00091F00E949723B1E008950C949723672F10
:1045B000782F8827B85F39F0B93FCCF38695779587
:1045C0006795B395D9F73EF4909580957095619570
:1045D0007F4F8F4F9F4F0895E89409C097FB3EF49B
:1045E00090958095709561957F4F8F4F9F4F992340
:1045F000A9F0F92F96E9BB279395F69587957795BE
:104600006795B795F111F8CFFAF4BB0F11F460FF7D
:104610001BC06F5F7F4F8F4F9F4F16C0882311F0D5
:1046200096E911C0772321F09EE8872F762F05C0E9
:10463000662371F096E8862F70E060E02AF09A9584
:10464000660F771F881FDAF7880F9695879597F979
:104650000895990F0008550FAA0BE0E8FEEF161613
:104660001706E807F907C0F012161306E407F50766
:1046700098F0621B730B840B950B39F40A2661F0DA
:10468000232B242B252B21F408950A2609F4A1407D
:10469000A6958FEF811D811D089597F99F6780E88A
:1046A00070E060E008959FEF80EC089500240A9484
:1046B0001616170618060906089500240A941216FD
:1046C0001306140605060895092E0394000C11F430
:1046D000882352F0BB0F40F4BF2B11F460FF04C0DD
:1046E0006F5F7F4F8F4F9F4F089557FD9058440F36
:1046F000551F59F05F3F71F04795880F97FB991F41
:1047000061F09F3F79F087950895121613061406FD
:10471000551FF2CF4695F1DF08C01616170618068A
:10472000991FF1CF86957105610508940895E89465
:10473000BB2766277727CB0197F908950E94292385
:1047400008F48FEF08950E94B6230C9464230E940E
:10475000562338F00E945D2320F0952311F00C942D
:104760004D230C94532311240C9498230E947523F9
:1047700070F3959FC1F3950F50E0551F629FF001B4
:10478000729FBB27F00DB11D639FAA27F00DB11DCD
:10479000AA1F649F6627B00DA11D661F829F222756
:1047A000B00DA11D621F739FB00DA11D621F839FDD
:1047B000A00D611D221F749F3327A00D611D231FB3
:1047C000849F600D211D822F762F6A2F11249F5701
:1047D00050409AF0F1F088234AF0EE0FFF1FBB1F04
:1047E000661F771F881F91505040A9F79E3F5105C3
:1047F00080F00C944D230C9498235F3FE4F3983E93
:10480000D4F3869577956795B795F795E7959F5F6C
:10481000C1F7FE2B880F911D9695879597F90895FE
:104820000E942923880B990B0895CF93DF93823040
:10483000910510F482E090E0E0911808F0911908D9
:1048400020E030E0C0E0D0E0309711F140815181AC
:1048500048175907C0F04817590761F482819381BE
:10486000209719F09B838A832BC09093190880931B
:10487000180826C02115310519F04217530718F4FE
:104880009A01BE01DF01EF010280F381E02DDCCF50
:104890002115310509F1281B390B2430310590F41D
:1048A00012968D919C9113976115710521F0FB0172
:1048B0009383828304C09093190880931808FD01A4
:1048C000329644C0FD01E20FF31F81939193225071
:1048D00031092D933C933AC0209116083091170866
:1048E000232B41F420910F013091100130931708D0
:1048F0002093160820910D0130910E0121153105EC
:1049000041F42DB73EB74091110150911201241B83
:10491000350BE0911608F0911708E217F307A0F4A1
:104920002E1B3F0B2817390778F0AC014E5F5F4F05
:104930002417350748F04E0F5F1F50931708409318
:1049400016088193919302C0E0E0F0E0CF01DF917F
:10495000CF9108950F931F93CF93DF93009709F49E
:104960008CC0FC01329713821282009118081091BA
:1049700019080115110581F420813181820F931FDF
:1049800020911608309117082817390779F5F09308
:104990001708E093160871C0D80140E050E0AE1748
:1049A000BF0750F412962D913C911397AD0121153C
:1049B000310509F1D901F3CF9D01DA013383228357
:1049C00060817181860F971F8217930769F4EC014C
:1049D00028813981260F371F2E5F3F4F3183208377
:1049E0008A819B8193838283452B29F4F093190854
:1049F000E093180842C01396FC93EE931297ED01D2
:104A0000499159919E01240F351FE217F30771F464
:104A100080819181840F951F029611969C938E93AD
:104A20008281938113969C938E931297E0E0F0E03D
:104A3000D80112968D919C911397009719F0F80167
:104A40008C01F6CF8D919C9198012E5F3F4F820F84
:104A5000931F20911608309117082817390769F419
:104A6000309729F4109219081092180802C0138286
:104A700012821093170800931608DF91CF911F91AF
:104A80000F91089581E090E0F8940C949225FB0139
:104A9000DC014150504048F001900D920020C9F7D0
:104AA00001C01D9241505040E0F70895FC01882755
:104AB0009927E89421912032E9F3293010F02E3023
:104AC000C8F32B3241F02D3239F4689404C00E94AF
:104AD0007425820F911D219120532A30C0F31EF4BA
:104AE000909581959F4F08957AE0979F902D879F8D
:104AF000802D910D11240895F999FECF92BD81BDAD
:104B0000F89A992780B50895262FF999FECF1FBAF4
:104B100092BD81BD20BD0FB6F894FA9AF99A0FBEE6
:104B20000196089510E0CAEAD0E004C0FE010E9498
:0E4B30009D212196CB3AD107C9F7F894FFCF0B
:104B3E00000F3C1405000075440080894400001AE3
:104B4E0008800000000000EE00990C42015A01D5C9
:104B5E0000ED000000304100003041000030411FE8
:104B6E001C1F1E1F1E1F1F1E1F1E1F000000001DCC
:104B7E000D990CE60CC40CD80C640D00000000C29C
:104B8E00019201DE0D030EF40DF30D0000000095F1
:104B9E0009990C950995099509950900000000954C
:104BAE0009990C00000000AD04F301E60DFB10178F
:104BBE000E00000000AE04F10191013812580E00F3
:104BCE00000000000000009101950995094F7065E5
:104BDE006E20636F6D6D616E64206D6F64650A008B
:104BEE00617474656D70743A20003E004F4C204322
:104BFE004D445F4D4F4445006572726F72206F7069
:104C0E00656E6C6F6E6720636D640054454D502069
:104C1E004F4E200A00626567696E207478200A0084
:104C2E0073656E6420636F6E666967200A00626545
:104C3E0067696E20636F6E76657274200A00576125
:104C4E00697420666F7220636F6E76657274696F19
:104C5E006E200A0041736B2074656D70657261740D
:104C6E00757265200A0052656164206279746573FD
:104C7E00200A000A202054656D7065726174757289
:104C8E006520666C6F61743A20000D0A0020204189
:104C9E0043430A00202054656D702026204F706516
:104CAE006E206C6F670A00204C4F47474552204FCD
:104CBE004646200A00475053206F6E2E2E2E004778
:104CCE005053206F66662E2E2E00202043616D6598
:104CDE007261206F6E200A00202043616D65726143
:104CEE00206F6666200A00202068756D0A004F70DE
:104CFE00656E206C6F672077726974696E672074B9
:104D0E006573740A003A616263646566736466660D
:104D1E002D21230066696E69736820777269746944
:104D2E006E670A0020204C6F676765723A2000613B
:104D3E007070656E64206D796C6F675F0030002E49
:104D4E00747874007820286D2F735E32293B792099
:104D5E00286D2F735E32293B7A20286D2F735E32B9
:104D6E00293B7820287554293B7920287554293BF6
:104D7E007A20287554290020207265736574206C82
:104D8E006F676765722066696C6520746F206E654B
:104D9E007730312E7478740A0020206572726F722B
:104DAE000A006E616E00696E66006F7666000A20FC
:104DBE00416363656C65726F6D65746572207468AE
:104DCE00726573686F6C64207061737365640063E1
:104DDE00683A00202061636320666C61672061760B
:104DEE00673A2000202076616C3A2000506F7442A2
:104DFE006F7420765F322E35007265616420706F9D
:104E0E0074626F7400706172616D65746572732087
:104E1E006C6F616465640072657365740020202098
:104E2E0020706172616D7465725B005D203A0045A1
:104E3E0072726F72204F4C5F706172616D65746536
:104E4E007273002020203A0077616974696E6720C2
:104E5E00616363202E2E2E007761697420666F7257
:104E6E00206770732E2E2E00636865636B20646559
:104E7E00706C6F796D656E742E2E2E00496E2077D4
:104E8E00617465722E2E2E206D6F6E69746F722096
:104E9E0074656D700066616C7365206465706C6F0F
:104EAE00796D656E742E2E2E00636865636B2070AF
:104EBE00756C6C65643F2E2E2E0070756C6C65647F
:104ECE003B007472616E736974696F6E20746F202B
:104EDE0061697220746573742E2E2E0066616C7378
:104EEE00652070756C6C65640066616C736520700E
:104EFE00756C6C65642066726F6D207472616E7372
:104F0E006974696F6E0070756C6C656420636F6E8A
:104F1E006669726D65642C20696E206169722E2E31
:104F2E002E0063616D657261206F6E2E2E2E0063F2
:104F3E00616D657261206F66662E2E2E0073746130
:104F4E00746520322E2E2E004F6F6F70732C206ED4
:104F5E006F204C534D333033206465746563746534
:104F6E0064202E2E2E20436865636B20796F757238
:104F7E0020776972696E6721004C534D33303300D0
:104F8E004750524D43004750532072656365697612
:0A4F9E0065640047504747410000DA
:00000001FF
